:0300000002089F54
:0C089F00787FE4F6D8FD75812D0208E694
:100969001410004000F900240030001900120002A0
:0609790000F80000001070
:10092B00E4FDFCD3ED9FEC9E5015E4FBFA0BBB00F2
:0F093B00010AEB64334A70F50DBD00010C80E436
:01094A00228A
:100980008E2C8F2DEF25E02410F808E6F5A07F01CE
:050990007E0002092BAE
:1008000020B21530B2FD0509E50970020508640A39
:1008100045087004F508F50920B31530B3FD050B44
:10082000E50B7002050A640A450A7004F50AF50B27
:1008300020B41530B4FD050DE50D7002050C640AF9
:10084000450C7004F50CF50D20B51530B5FD050F00
:10085000E50F7002050E640A450E7004F50EF50FE3
:10086000D293C290C292C291AF09AE08120980D24F
:1008700092C293C291C290AF0BAE0A120980D2917C
:10088000C293C290C292AF0DAE0C120980D290C238
:0F08900093C292C291AF0FAE0E12098002080000
:10094B00E4F50EF50FF50CF50DF50AF50BF508F5BD
:0E095B0009D2B5D2B4D2B3D2B212080080FBDA
:1008AB0002094BE493A3F8E493A34003F68001F20F
:1008BB0008DFF48029E493A3F85407240CC8C3334E
:1008CB00C4540F4420C8834004F456800146F6DF1D
:1008DB00E4800B0102040810204080900969E47E3B
:1008EB00019360BCA3FF543F30E509541FFEE49312
:1008FB00A360010ECF54C025E060A840B8E493A3D9
:10090B00FAE493A3F8E493A3C8C582C8CAC583CA03
:10091B00F0A3C8C582C8CAC583CADFE9DEE780BEBB
:01097F000077
:00000001FF
